:03000000020930C2
:0C093000787FE4F6D8FD75810F02087D89
:0C093C003025003530250031303025001A
:06080000D2B17FF47E017D
:040806008F828E83CC
:10080A00E4F50FF50EF50DF50CAF82AE83E4FCFDB1
:10081A00AB0FAA0EA90DA80CD31208CB501BE4FAF1
:10082A00F9F8E50F2401F50FEA350EF50EE9350D55
:09083A00F50DE8350CF50C80D039
:010843002292
:0A0948008FA0C2B0120800C2B12255
:0A0952008FA0D2B0120800C2B1223B
:1008E1008B098A0A890BAB09AA0AA90B1208B2FF64
:1008F10060131209527401250BF50BE4350AF50A50
:0609010012080280E12251
:100907001208027F011209481208027F8012094863
:080917001208027F0C020948DE
:10091F0020B30BD29020B4037F64227F32227F005A
:01092F0022A5
:10084400EF24CE601624CE60202464702BC290C2A4
:1008540091C2927BFF7A09793C801AD290D291C2DC
:10086400927BFF7A09793F800CD290D291D2927B0D
:09087400FF7A0979431208E12220
:09095C00D295C296D295C29622F2
:09096500C295C296C295C2962209
:10087D00E4F5087E0112091F8F08E5086E60F61277
:10088D000907AF08120844AE08EEFD7C00C3943290
:10089D0074809480500AED646460DA12095C80D52E
:0508AD0012096580D076
:1008B200BB010689828A83E0225002E722BBFE0244
:0908C200E32289828A83E4932277
:1008CB00EB9FF5F0EA9E42F0E99D42F0EC6480C8A4
:0608DB0064809845F02244
:00000001FF
